:1000000033C04CC093C049C048C047C046C045C07B
:1000100044C043C042C041C040C0D0C03EC03DC04B
:100020003CC03BC03AC03E5149453E00427F400083
:1000300042615149462141454B311814127F102726
:10004000454545393C4A494930017109050336495E
:10005000494936064949291E2313086462231308B7
:10006000040208080808080011241FBECFEDCDBF08
:1000700010E0A0E6B0E0E8ECF5E002C005900D92DB
:10008000A236B107D9F720E0A2E6B0E001C01D9288
:10009000A138B207E1F73ED295C2B2CF1F920F92BC
:1000A0000FB60F9211242F938F939F9385B784607F
:1000B00085BF20B380916300922F907124FF0EC002
:1000C0008F3520F4839B06C08B5F0FC08436C0F44D
:1000D000839902C08F5F09C084E607C0863040F074
:1000E000839B02C0855001C081508093630008C08B
:1000F000882331F0839902C09FEF980F909363009B
:1001000081E090916300911101C080E080936000D4
:1001100087EC90E00197F1F700C000009F918F916C
:100120002F910F900FBE0F901F9018951F920F9256
:100130000FB60F9211242F933F934F935F936F93BA
:100140007F938F939F93AF93BF93EF93FF9305B6E6
:1001500002FE04C085B78B7F85BF19C085B7846058
:1001600085BF80916000882351F06091630080E03A
:1001700090E0C2D1109263001092600008C080E04D
:1001800090E0C2D18093630081E08093600087ECAF
:1001900090E00197F1F700C00000FF91EF91BF914F
:1001A000AF919F918F917F916F915F914F913F910F
:1001B0002F910F900FBE0F901F9018951F920F92C6
:1001C0000FB60F9211242F938F939F93AF93BF93EA
:1001D0008091690090916A00A0916B00B0916C00D1
:1001E0000196A11DB11D8093690090936A00A093B0
:1001F0006B00B0936C009270AA27BB2781159240C8
:10020000A105B10529F4809162008F5F809362009F
:10021000BF91AF919F918F912F910F900FBE0F9033
:100220001F901895F89481B3837E81BB8E9A8BB70B
:10023000806C8BBF85B78F6085BF80B7826080BFC1
:1002400083B7836083BF8FE786BF89B7816089BF2B
:1002500081B58E6081BD78940895EF92FF921F93CF
:10026000CF93DF93CDB7DD27C450CDBF7C01809104
:10027000620080FD02C015E201C016E24AE0BE0144
:100280006F5F7F4FC7016BD18AE0E816F10438F445
:1002900089818B831C8380E289838A830BC084E6F7
:1002A000E816F10430F48A818B8389818A8380E2A5
:1002B00089831C8360E0CE0101960BD1CC5FCDBF5A
:1002C000DF91CF911F91FF90EF90089518161906B6
:1002D0002CF58436910504F56AE070E02FD1092EE3
:1002E000000CAA0BBB0B4091650050916600609119
:1002F000670070916800840F951FA61FB71F40917B
:10030000690050916A0060916B0070916C00481711
:1003100059076A077B0710F4969A01C09698409196
:10032000690050916A0060916B0070916C0080913F
:10033000650090916600A0916700B09168008851B7
:100340009C4FAF4FBF4F84179507A607B70740F4E0
:100350004093650050936600609367007093680057
:10036000089587B38F6187BB88B3897F88BB8AE193
:100370008A95F1F700C088B38B6188BBEDE6F0E0A9
:10038000119280E0E138F807D9F70895C49827E082
:1003900030E070E047E050E0882359F0FA01E21BBA
:1003A000F30BDB0102C0B595A795EA95E2F7FD01D5
:1003B00007C0FB01022E02C0F595E7950A94E2F70B
:1003C000E0FF02C0C29A01C0C298BAE1BA95F1F743
:1003D00000C0C49A9AE19A95F1F700C0C4982150E0
:1003E0003109D0F60895C39A9AE19A95F1F700C0C1
:1003F000C0989AE19A95F1F700C0682F81E0C6DFB6
:10040000C09A0895CF93C82F81E8EDDF8C2FCF914C
:10041000EACFCF93DF93C3988AE18A95F1F700C0C2
:10042000C098CDE6D0E0699180E0B0DF80E0C138CF
:10043000D807C9F7C09ADF91CF910895803108F0AD
:100440008FE08067DFCFCF93DF93A82F643018F061
:10045000DF91CF91DECF862F90E065E070E06ED027
:10046000EC018A2F0A2E000C990BC09765E070E012
:1004700065D040E050E060ED6A0F9E01240F351F0B
:100480006A3030F4FC01E40FF51FEA5DFF4F05C050
:10049000A53249F4FA01E85AFF4F749123593F4FAE
:1004A000F901708310C0A63221F4FA01E35AFF4F1C
:1004B000F4CFAD3221F4FA01EE59FF4FEECFF9013E
:1004C000E359FF4F10824F5F5F4F45305105A9F64A
:1004D000BFCF0F931F93CF93C62F643048F48C0186
:1004E0006C2FF80181918F01AEDFCF5FC430C1F76F
:1004F000CF911F910F910895E199FECF1CBA8EBB49
:100500006DBBE29AE19A0895E199FECF8EBBE09A25
:100510008DB3089587DE87EE93E00197F1F700C071
:1005200000001FDF8AE08ADF8091630090E095DEA3
:100530008091630090E0CADEA895F6CF002455278D
:1005400004C0080E591F880F991F009729F076954F
:100550006795B8F37105B9F7802D952F0895BB27DE
:100560004A3031F4992322F4BDE2909581959F4F52
:1005700001C0BB27FB015527AA27880F991FAA1F77
:10058000A41710F0A41B83955051B9F7A05DAA33AE
:1005900008F0A95DA193009779F7B111B193119279
:1005A000CB0100C0DC01FC01672F71917723E1F7DB
:1005B000329704C07C916D9370836291AE17BF0730
:0805C000C8F30895F894FFCF81
:0205C800010030
:00000001FF
